{
  "contractName": "FundraiserFactory",
  "abi": [
    {
      "anonymous": false,
      "inputs": [
        {
          "indexed": true,
          "internalType": "contract Fundraiser",
          "name": "fundraiser",
          "type": "address"
        },
        {
          "indexed": true,
          "internalType": "address",
          "name": "owner",
          "type": "address"
        }
      ],
      "name": "FundraiserCreated",
      "type": "event"
    },
    {
      "inputs": [
        {
          "internalType": "string",
          "name": "name",
          "type": "string"
        },
        {
          "internalType": "string",
          "name": "url",
          "type": "string"
        },
        {
          "internalType": "string",
          "name": "imageURL",
          "type": "string"
        },
        {
          "internalType": "string",
          "name": "description",
          "type": "string"
        },
        {
          "internalType": "address payable",
          "name": "beneficiary",
          "type": "address"
        }
      ],
      "name": "createFundraiser",
      "outputs": [],
      "stateMutability": "nonpayable",
      "type": "function"
    },
    {
      "inputs": [],
      "name": "fundraisersCount",
      "outputs": [
        {
          "internalType": "uint256",
          "name": "",
          "type": "uint256"
        }
      ],
      "stateMutability": "view",
      "type": "function",
      "constant": true
    },
    {
      "inputs": [
        {
          "internalType": "uint256",
          "name": "limit",
          "type": "uint256"
        },
        {
          "internalType": "uint256",
          "name": "offset",
          "type": "uint256"
        }
      ],
      "name": "fundraisers",
      "outputs": [
        {
          "internalType": "contract Fundraiser[]",
          "name": "coll",
          "type": "address[]"
        }
      ],
      "stateMutability": "view",
      "type": "function",
      "constant": true
    }
  ],
  "bytecode": "0x608060405234801561001057600080fd5b5061238d806100206000396000f3fe60806040523480156200001157600080fd5b5060043610620000465760003560e01c806311d752ad146200004b578063704914f814620002fa5780639d3b4355146200038c575b600080fd5b620002f8600480360360a08110156200006357600080fd5b81019080803590602001906401000000008111156200008157600080fd5b8201836020820111156200009457600080fd5b80359060200191846001830284011164010000000083111715620000b757600080fd5b91908080601f016020809104026020016040519081016040528093929190818152602001838380828437600081840152601f19601f820116905080830192505050505050509192919290803590602001906401000000008111156200011b57600080fd5b8201836020820111156200012e57600080fd5b803590602001918460018302840111640100000000831117156200015157600080fd5b91908080601f016020809104026020016040519081016040528093929190818152602001838380828437600081840152601f19601f82011690508083019250505050505050919291929080359060200190640100000000811115620001b557600080fd5b820183602082011115620001c857600080fd5b80359060200191846001830284011164010000000083111715620001eb57600080fd5b91908080601f016020809104026020016040519081016040528093929190818152602001838380828437600081840152601f19601f820116905080830192505050505050509192919290803590602001906401000000008111156200024f57600080fd5b8201836020820111156200026257600080fd5b803590602001918460018302840111640100000000831117156200028557600080fd5b91908080601f016020809104026020016040519081016040528093929190818152602001838380828437600081840152601f19601f820116905080830192505050505050509192919290803573ffffffffffffffffffffffffffffffffffffffff169060200190929190505050620003ac565b005b62000333600480360360408110156200031257600080fd5b8101908080359060200190929190803590602001909291905050506200074f565b6040518080602001828103825283818151815260200191508051906020019060200280838360005b83811015620003785780820151818401526020810190506200035b565b505050509050019250505060405180910390f35b62000396620008fe565b6040518082815260200191505060405180910390f35b6000858585858533604051620003c2906200090a565b80806020018060200180602001806020018773ffffffffffffffffffffffffffffffffffffffff1673ffffffffffffffffffffffffffffffffffffffff1681526020018673ffffffffffffffffffffffffffffffffffffffff1673ffffffffffffffffffffffffffffffffffffffff16815260200185810385528b818151815260200191508051906020019080838360005b838110156200047157808201518184015260208101905062000454565b50505050905090810190601f1680156200049f5780820380516001836020036101000a031916815260200191505b5085810384528a818151815260200191508051906020019080838360005b83811015620004da578082015181840152602081019050620004bd565b50505050905090810190601f168015620005085780820380516001836020036101000a031916815260200191505b50858103835289818151815260200191508051906020019080838360005b838110156200054357808201518184015260208101905062000526565b50505050905090810190601f168015620005715780820380516001836020036101000a031916815260200191505b50858103825288818151815260200191508051906020019080838360005b83811015620005ac5780820151818401526020810190506200058f565b50505050905090810190601f168015620005da5780820380516001836020036101000a031916815260200191505b509a5050505050505050505050604051809103906000f08015801562000604573d6000803e3d6000fd5b5090506000819080600181540180825580915050600190039060005260206000200160009091909190916101000a81548173ffffffffffffffffffffffffffffffffffffffff021916908373ffffffffffffffffffffffffffffffffffffffff1602179055508073ffffffffffffffffffffffffffffffffffffffff16638da5cb5b6040518163ffffffff1660e01b815260040160206040518083038186803b158015620006b157600080fd5b505afa158015620006c6573d6000803e3d6000fd5b505050506040513d6020811015620006dd57600080fd5b810190808051906020019092919050505073ffffffffffffffffffffffffffffffffffffffff168173ffffffffffffffffffffffffffffffffffffffff167fa2398daac0c8053a1e3c0280916c2ec6bc884f0959c27e639a4db829b7eabfb160405160405180910390a3505050505050565b60606200075b620008fe565b821115620007d1576040517f08c379a00000000000000000000000000000000000000000000000000000000081526004018080602001828103825260148152602001807f6f6666736574206f7574206f6620626f756e647300000000000000000000000081525060200191505060405180910390fd5b600082620007de620008fe565b039050838110620007f05783620007f2565b805b9050601481106200080557601462000807565b805b90508067ffffffffffffffff811180156200082157600080fd5b50604051908082528060200260200182016040528015620008515781602001602082028036833780820191505090505b50915060008090505b81811015620008f3576000818501815481106200087357fe5b9060005260206000200160009054906101000a900473ffffffffffffffffffffffffffffffffffffffff16838281518110620008ab57fe5b602002602001019073ffffffffffffffffffffffffffffffffffffffff16908173ffffffffffffffffffffffffffffffffffffffff168152505080806001019150506200085a565b508191505092915050565b60008080549050905090565b611a3f80620009198339019056fe60806040523480156200001157600080fd5b5060405162001a3f38038062001a3f833981810160405260c08110156200003757600080fd5b81019080805160405193929190846401000000008211156200005857600080fd5b838201915060208201858111156200006f57600080fd5b82518660018202830111640100000000821117156200008d57600080fd5b8083526020830192505050908051906020019080838360005b83811015620000c3578082015181840152602081019050620000a6565b50505050905090810190601f168015620000f15780820380516001836020036101000a031916815260200191505b50604052602001805160405193929190846401000000008211156200011557600080fd5b838201915060208201858111156200012c57600080fd5b82518660018202830111640100000000821117156200014a57600080fd5b8083526020830192505050908051906020019080838360005b838110156200018057808201518184015260208101905062000163565b50505050905090810190601f168015620001ae5780820380516001836020036101000a031916815260200191505b5060405260200180516040519392919084640100000000821115620001d257600080fd5b83820191506020820185811115620001e957600080fd5b82518660018202830111640100000000821117156200020757600080fd5b8083526020830192505050908051906020019080838360005b838110156200023d57808201518184015260208101905062000220565b50505050905090810190601f1680156200026b5780820380516001836020036101000a031916815260200191505b50604052602001805160405193929190846401000000008211156200028f57600080fd5b83820191506020820185811115620002a657600080fd5b8251866001820283011164010000000082111715620002c457600080fd5b8083526020830192505050908051906020019080838360005b83811015620002fa578082015181840152602081019050620002dd565b50505050905090810190601f168015620003285780820380516001836020036101000a031916815260200191505b506040526020018051906020019092919080519060200190929190505050600062000358620004b860201b60201c565b9050806000806101000a81548173ffffffffffffffffffffffffffffffffffffffff021916908373ffffffffffffffffffffffffffffffffffffffff1602179055508073ffffffffffffffffffffffffffffffffffffffff16600073ffffffffffffffffffffffffffffffffffffffff167f8be0079c531659141344cd1fd0a4f28419497f9722a3daafe3b4186f6b6457e060405160405180910390a35085600290805190602001906200040e929190620006ef565b50846003908051906020019062000427929190620006ef565b50836004908051906020019062000440929190620006ef565b50826005908051906020019062000459929190620006ef565b5080600660006101000a81548173ffffffffffffffffffffffffffffffffffffffff021916908373ffffffffffffffffffffffffffffffffffffffff160217905550620004ac82620004c060201b60201c565b5050505050506200079e565b600033905090565b620004d0620004b860201b60201c565b73ffffffffffffffffffffffffffffffffffffffff16620004f6620006c660201b60201c565b73ffffffffffffffffffffffffffffffffffffffff161462000580576040517f08c379a00000000000000000000000000000000000000000000000000000000081526004018080602001828103825260208152602001807f4f776e61626c653a2063616c6c6572206973206e6f7420746865206f776e657281525060200191505060405180910390fd5b600073ffffffffffffffffffffffffffffffffffffffff168173ffffffffffffffffffffffffffffffffffffffff16141562000608576040517f08c379a000000000000000000000000000000000000000000000000000000000815260040180806020018281038252602681526020018062001a196026913960400191505060405180910390fd5b8073ffffffffffffffffffffffffffffffffffffffff166000809054906101000a900473ffffffffffffffffffffffffffffffffffffffff1673ffffffffffffffffffffffffffffffffffffffff167f8be0079c531659141344cd1fd0a4f28419497f9722a3daafe3b4186f6b6457e060405160405180910390a3806000806101000a81548173ffffffffffffffffffffffffffffffffffffffff021916908373ffffffffffffffffffffffffffffffffffffffff16021790555050565b60008060009054906101000a900473ffffffffffffffffffffffffffffffffffffffff16905090565b828054600181600116156101000203166002900490600052602060002090601f016020900481019282601f106200073257805160ff191683800117855562000763565b8280016001018555821562000763579182015b828111156200076257825182559160200191906001019062000745565b5b50905062000772919062000776565b5090565b6200079b91905b80821115620007975760008160009055506001016200077d565b5090565b90565b61126b80620007ae6000396000f3fe6080604052600436106100ec5760003560e01c80635600f04f1161008a578063b90497e011610059578063b90497e01461050c578063de2ed8931461059c578063ed88c68e146105c7578063f2fde38b146105d157610120565b80635600f04f1461037e578063715018a61461040e5780637284e416146104255780638da5cb5b146104b557610120565b80631c31f710116100c65780631c31f710146102945780631f522595146102e557806338af3eed146103105780633ccfd60b1461036757610120565b80630180b97c1461012557806306fdde03146101505780631a57f7b4146101e057610120565b36610120576101063460075461062290919063ffffffff16565b600781905550600860008154809291906001019190505550005b600080fd5b34801561013157600080fd5b5061013a6106aa565b6040518082815260200191505060405180910390f35b34801561015c57600080fd5b506101656106f4565b6040518080602001828103825283818151815260200191508051906020019080838360005b838110156101a557808201518184015260208101905061018a565b50505050905090810190601f1680156101d25780820380516001836020036101000a031916815260200191505b509250505060405180910390f35b3480156101ec57600080fd5b506101f5610792565b604051808060200180602001838103835285818151815260200191508051906020019060200280838360005b8381101561023c578082015181840152602081019050610221565b50505050905001838103825284818151815260200191508051906020019060200280838360005b8381101561027e578082015181840152602081019050610263565b5050505090500194505050505060405180910390f35b3480156102a057600080fd5b506102e3600480360360208110156102b757600080fd5b81019080803573ffffffffffffffffffffffffffffffffffffffff1690602001909291905050506108f1565b005b3480156102f157600080fd5b506102fa6109e4565b6040518082815260200191505060405180910390f35b34801561031c57600080fd5b506103256109ea565b604051808273ffffffffffffffffffffffffffffffffffffffff1673ffffffffffffffffffffffffffffffffffffffff16815260200191505060405180910390f35b34801561037357600080fd5b5061037c610a10565b005b34801561038a57600080fd5b50610393610b67565b6040518080602001828103825283818151815260200191508051906020019080838360005b838110156103d35780820151818401526020810190506103b8565b50505050905090810190601f1680156104005780820380516001836020036101000a031916815260200191505b509250505060405180910390f35b34801561041a57600080fd5b50610423610c05565b005b34801561043157600080fd5b5061043a610d73565b6040518080602001828103825283818151815260200191508051906020019080838360005b8381101561047a57808201518184015260208101905061045f565b50505050905090810190601f1680156104a75780820380516001836020036101000a031916815260200191505b509250505060405180910390f35b3480156104c157600080fd5b506104ca610e11565b604051808273ffffffffffffffffffffffffffffffffffffffff1673ffffffffffffffffffffffffffffffffffffffff16815260200191505060405180910390f35b34801561051857600080fd5b50610521610e3a565b6040518080602001828103825283818151815260200191508051906020019080838360005b83811015610561578082015181840152602081019050610546565b50505050905090810190601f16801561058e5780820380516001836020036101000a031916815260200191505b509250505060405180910390f35b3480156105a857600080fd5b506105b1610ed8565b6040518082815260200191505060405180910390f35b6105cf610ede565b005b3480156105dd57600080fd5b50610620600480360360208110156105f457600080fd5b81019080803573ffffffffffffffffffffffffffffffffffffffff169060200190929190505050610ffa565b005b6000808284019050838110156106a0576040517f08c379a000000000000000000000000000000000000000000000000000000000815260040180806020018281038252601b8152602001807f536166654d6174683a206164646974696f6e206f766572666c6f77000000000081525060200191505060405180910390fd5b8091505092915050565b6000600160003373ffffffffffffffffffffffffffffffffffffffff1673ffffffffffffffffffffffffffffffffffffffff16815260200190815260200160002080549050905090565b60028054600181600116156101000203166002900480601f01602080910402602001604051908101604052809291908181526020018280546001816001161561010002031660029004801561078a5780601f1061075f5761010080835404028352916020019161078a565b820191906000526020600020905b81548152906001019060200180831161076d57829003601f168201915b505050505081565b606080600061079f6106aa565b90508067ffffffffffffffff811180156107b857600080fd5b506040519080825280602002602001820160405280156107e75781602001602082028036833780820191505090505b5092508067ffffffffffffffff8111801561080157600080fd5b506040519080825280602002602001820160405280156108305781602001602082028036833780820191505090505b50915060008090505b818110156108e5576000600160003373ffffffffffffffffffffffffffffffffffffffff1673ffffffffffffffffffffffffffffffffffffffff168152602001908152602001600020828154811061088d57fe5b9060005260206000209060020201905080600001548583815181106108ae57fe5b60200260200101818152505080600101548483815181106108cb57fe5b602002602001018181525050508080600101915050610839565b50828292509250509091565b6108f96111ed565b73ffffffffffffffffffffffffffffffffffffffff16610917610e11565b73ffffffffffffffffffffffffffffffffffffffff16146109a0576040517f08c379a00000000000000000000000000000000000000000000000000000000081526004018080602001828103825260208152602001807f4f776e61626c653a2063616c6c6572206973206e6f7420746865206f776e657281525060200191505060405180910390fd5b80600660006101000a81548173ffffffffffffffffffffffffffffffffffffffff021916908373ffffffffffffffffffffffffffffffffffffffff16021790555050565b60085481565b600660009054906101000a900473ffffffffffffffffffffffffffffffffffffffff1681565b610a186111ed565b73ffffffffffffffffffffffffffffffffffffffff16610a36610e11565b73ffffffffffffffffffffffffffffffffffffffff1614610abf576040517f08c379a00000000000000000000000000000000000000000000000000000000081526004018080602001828103825260208152602001807f4f776e61626c653a2063616c6c6572206973206e6f7420746865206f776e657281525060200191505060405180910390fd5b6000479050600660009054906101000a900473ffffffffffffffffffffffffffffffffffffffff1673ffffffffffffffffffffffffffffffffffffffff166108fc829081150290604051600060405180830381858888f19350505050158015610b2c573d6000803e3d6000fd5b507f5b6b431d4476a211bb7d41c20d1aab9ae2321deee0d20be3d9fc9b1093fa6e3d816040518082815260200191505060405180910390a150565b60038054600181600116156101000203166002900480601f016020809104026020016040519081016040528092919081815260200182805460018160011615610100020316600290048015610bfd5780601f10610bd257610100808354040283529160200191610bfd565b820191906000526020600020905b815481529060010190602001808311610be057829003601f168201915b505050505081565b610c0d6111ed565b73ffffffffffffffffffffffffffffffffffffffff16610c2b610e11565b73ffffffffffffffffffffffffffffffffffffffff1614610cb4576040517f08c379a00000000000000000000000000000000000000000000000000000000081526004018080602001828103825260208152602001807f4f776e61626c653a2063616c6c6572206973206e6f7420746865206f776e657281525060200191505060405180910390fd5b600073ffffffffffffffffffffffffffffffffffffffff166000809054906101000a900473ffffffffffffffffffffffffffffffffffffffff1673ffffffffffffffffffffffffffffffffffffffff167f8be0079c531659141344cd1fd0a4f28419497f9722a3daafe3b4186f6b6457e060405160405180910390a360008060006101000a81548173ffffffffffffffffffffffffffffffffffffffff021916908373ffffffffffffffffffffffffffffffffffffffff160217905550565b60058054600181600116156101000203166002900480601f016020809104026020016040519081016040528092919081815260200182805460018160011615610100020316600290048015610e095780601f10610dde57610100808354040283529160200191610e09565b820191906000526020600020905b815481529060010190602001808311610dec57829003601f168201915b505050505081565b60008060009054906101000a900473ffffffffffffffffffffffffffffffffffffffff16905090565b60048054600181600116156101000203166002900480601f016020809104026020016040519081016040528092919081815260200182805460018160011615610100020316600290048015610ed05780601f10610ea557610100808354040283529160200191610ed0565b820191906000526020600020905b815481529060010190602001808311610eb357829003601f168201915b505050505081565b60075481565b610ee66111f5565b6040518060400160405280348152602001428152509050600160003373ffffffffffffffffffffffffffffffffffffffff1673ffffffffffffffffffffffffffffffffffffffff16815260200190815260200160002081908060018154018082558091505060019003906000526020600020906002020160009091909190915060008201518160000155602082015181600101555050610f913460075461062290919063ffffffff16565b6007819055506008600081548092919060010191905055503373ffffffffffffffffffffffffffffffffffffffff167f264f630d9efa0d07053a31163641d9fcc0adafc9d9e76f1c37c2ce3a558d2c52346040518082815260200191505060405180910390a250565b6110026111ed565b73ffffffffffffffffffffffffffffffffffffffff16611020610e11565b73ffffffffffffffffffffffffffffffffffffffff16146110a9576040517f08c379a00000000000000000000000000000000000000000000000000000000081526004018080602001828103825260208152602001807f4f776e61626c653a2063616c6c6572206973206e6f7420746865206f776e657281525060200191505060405180910390fd5b600073ffffffffffffffffffffffffffffffffffffffff168173ffffffffffffffffffffffffffffffffffffffff16141561112f576040517f08c379a00000000000000000000000000000000000000000000000000000000081526004018080602001828103825260268152602001806112106026913960400191505060405180910390fd5b8073ffffffffffffffffffffffffffffffffffffffff166000809054906101000a900473ffffffffffffffffffffffffffffffffffffffff1673ffffffffffffffffffffffffffffffffffffffff167f8be0079c531659141344cd1fd0a4f28419497f9722a3daafe3b4186f6b6457e060405160405180910390a3806000806101000a81548173ffffffffffffffffffffffffffffffffffffffff021916908373ffffffffffffffffffffffffffffffffffffffff16021790555050565b600033905090565b60405180604001604052806000815260200160008152509056fe4f776e61626c653a206e6577206f776e657220697320746865207a65726f2061646472657373a2646970667358221220c287564f8ad9b38b07c435ef1b12ffc31a5a1728fc5272e8cfba01769bed602d64736f6c634300060800334f776e61626c653a206e6577206f776e657220697320746865207a65726f2061646472657373a26469706673582212201a00358431d6ddea4b8564c93adcf665cc6ed5cc5f48e4daef95bb4b874ace9564736f6c63430006080033",
  "immutableReferences": {},
  "source": "// SPDX-License-Identifier: UNLICENSED\n\npragma solidity 0.6.8;\n\nimport \"./Fundraiser.sol\";\n\ncontract FundraiserFactory {\n    Fundraiser[] private _fundraisers;\n    uint256 constant maxLimit = 20;\n\n    event FundraiserCreated(\n        Fundraiser indexed fundraiser,\n        address indexed owner\n    );\n\n    function createFundraiser(\n        string memory name,\n        string memory url,\n        string memory imageURL,\n        string memory description,\n        address payable beneficiary\n    ) public {\n        Fundraiser fundraiser =\n            new Fundraiser(\n                name,\n                url,\n                imageURL,\n                description,\n                beneficiary,\n                msg.sender\n            );\n        _fundraisers.push(fundraiser);\n        emit FundraiserCreated(fundraiser, fundraiser.owner());\n    }\n\n    function fundraisersCount() public view returns (uint256) {\n        return _fundraisers.length;\n    }\n\n    function fundraisers(uint256 limit, uint256 offset)\n        public\n        view\n        returns (Fundraiser[] memory coll)\n    {\n        require(offset <= fundraisersCount(), \"offset out of bounds\");\n\n        uint256 size = fundraisersCount() - offset;\n        size = size < limit ? size : limit;\n        size = size < maxLimit ? size : maxLimit;\n        coll = new Fundraiser[](size);\n\n        for (uint256 i = 0; i < size; i++) {\n            coll[i] = _fundraisers[offset + i];\n        }\n\n        return coll;\n    }\n}\n",
  "sourcePath": "/Users/delamtt/study/solidity/fundraiser/contracts/FundraiserFactory.sol",
  "compiler": {
    "name": "solc",
    "version": "0.6.8+commit.0bbfe453.Emscripten.clang"
  },
  "schemaVersion": "3.3.4",
  "updatedAt": "2021-04-12T13:46:29.660Z",
  "networkType": "ethereum",
  "devdoc": {
    "methods": {}
  },
  "userdoc": {
    "methods": {}
  }
}